:020000040800F2
:100000008806002065010008A30E0008A10E000864
:1000100000000000000000000000000000000000E0
:10002000000000000000000000000000A70E000813
:100030000000000000000000A50E0008A90E000846
:1000400077010008770100087701000877010008B0
:1000500077010008770100087701000877010008A0
:100060007701000877010008770100087701000890
:10007000770100087701000877010008050F0008E4
:100080007701000877010008770100087701000870
:100090007701000877010008770100087701000860
:1000A0007701000877010008770100087701000850
:1000B0007701000877010008770100087701000840
:1000C00000F002F800F03EF80CA030C80838241800
:1000D0002D18A246671EAB4654465D46AC4201D180
:1000E00000F030F87E460F3E0FCCB6460126334274
:1000F00000D0FB1AA246AB46334318476C100000F1
:100100008C100000103A02D378C878C1FAD8520790
:1001100001D330C830C101D504680C6070470000BD
:100120000023002400250026103A01D378C1FBD813
:10013000520700D330C100D50B6070471FB51FBDFB
:1001400010B510BD00F020FB1146FFF7F7FF00F0DF
:1001500069FF00F038FB03B4FFF7F2FF03BC00F0C7
:100160003FFB00000748804707480047FEE7FEE7DF
:10017000FEE7FEE7FEE7FEE704480549054A064BB1
:1001800070470000010F0008C1000008880000202F
:10019000880600208802002088020020FEB505465F
:1001A00010460C46184373D0AE468C460020AD1A5C
:1001B00001469C4167D36646002701243D46B61A96
:1001C0009D4102D313463A462124654676462F04C4
:1001D000360C3E432D0CB61A9D4104D3150C1B045E
:1001E0002B4312041034654676462F06360A3E43EA
:1001F0002D0AB61A9D4104D3150E1B022B43120281
:100200000834654676462F0736093E432D09B61A4F
:100210009D4104D3150F1B012B431201241D65467C
:100220007646AF07B6083E43AD08B61A9D4104D3E3
:10023000950F9B002B439200A41C65467646EF0762
:1002400076083E436D08B61A9D411AD392185B4159
:10025000641C16E00018764665464941B71A9D4170
:100260000191009009D36046B11A98418E468446A8
:10027000009801990025401C6941DD0752082A4376
:100280005B08641EE6D57246634603B0F0BDFFE727
:1002900000200146C046C0462A462346F5E701E055
:1002A00004C0091F0429FBD28B0701D50280801CE2
:1002B000C90700D00270704700290BD0C30702D0D5
:1002C0000270401C491E022904D3830702D5028014
:1002D000801C891EE3E70022EEE70022DFE7002210
:1002E00003098B422CD3030A8B4211D300239C4673
:1002F0004EE003460B433CD4002243088B4231D3EB
:1003000003098B421CD3030A8B4201D394463FE07E
:10031000C3098B4201D3CB01C01A524183098B42DE
:1003200001D38B01C01A524143098B4201D34B01C7
:10033000C01A524103098B4201D30B01C01A52412A
:10034000C3088B4201D3CB00C01A524183088B42B1
:1003500001D38B00C01A524143088B4201D34B009A
:10036000C01A5241411A00D201465241104670470C
:100370005DE0CA0F00D04942031000D34042534011
:1003800000229C4603098B422DD3030A8B4212D3D1
:10039000FC22890112BA030A8B420CD38901921103
:1003A0008B4208D3890192118B4204D389013AD040
:1003B000921100E08909C3098B4201D3CB01C01A15
:1003C000524183098B4201D38B01C01A5241430928
:1003D0008B4201D34B01C01A524103098B4201D316
:1003E0000B01C01A5241C3088B4201D3CB00C01A83
:1003F000524183088B4201D38B00C01A5241D9D29B
:1004000043088B4201D34B00C01A5241411A00D21B
:100410000146634652415B10104601D34042002B17
:1004200000D54942704763465B1000D3404201B596
:100430000020C046C04602BD7047704770470000AC
:100440000346CA02400D10B510430A1504D001241A
:10045000E4072043002A05DB0A4CA21A04D4D0404A
:10046000FF2A00DD002010BD4A00002B01D0012032
:1004700000E00020101801225205D042F2D8C8171F
:10048000C04310BD1E0400001F22030C02D10F2226
:10049000000402D0030E03D004E0002001467047A0
:1004A0000002083A030F01D10001121F830F01D18E
:1004B0008000921E002801DB4000521E12055118D8
:1004C0004205C012411810467047C10FC90700D03D
:1004D0004042012292071143D6E701218907D3E761
:1004E000F0B58B4C0F09254689B0BD437BD01D0963
:1004F0002646AE43FAD00E465E402740F60F3E43F6
:10050000254071D024012142FBD0FF24AD19A40461
:100510002D1B039501252D05DB02DB0AC9022B43A8
:10052000C90A29431E010901040F130F05012143C4
:100530001701880B820391432D098C46A90B1E439A
:100540008A039543B30B9A0396433F09BA0B94036E
:10055000A74302962E467E430497B6464E19D719F6
:100560000C460196544305977E43371B7646BF1BC6
:100570003601B646BE0B361900967646BC043719CE
:10058000009C01D3641C00946400002F01D001265C
:100590003443029E049F754366467E43049676006C
:1005A00034196E0034190094029C019E1C19664394
:1005B000751BAE46069465464519059C05956C432A
:1005C000594375460891691A0191049E01465143A9
:1005D000A41B0491611A009C0791E10605D06109F2
:1005E0000122114302E072E06EE06109089D0027DC
:1005F0002C0A2D066918049D7C412A0A2D066918CB
:10060000019D6241AC0DAD026D185441079A910DE8
:10061000920255196141029A644658435443069B1D
:10062000059A5A43121A131B9A0E9B015B187A41C2
:10063000010B0005C3185141220A200644195A41F2
:100640009A4200D2491C01204002814203D3152363
:100650000226F64302E014230326F6432020C51A9F
:10066000A9401746AF40DA400A4320460399D840D4
:100670000914731819055118039A3843D2075140C9
:10068000AC4009D00122944006D30022401C5141C5
:10069000002C01D1400840001E4A934212D301228F
:1006A00003989206904207DB0520400709181A4874
:1006B0000143C012414004E0032040070818C10F65
:1006C000C907002009B0F0BD0020F107FAE70518BE
:1006D0000C464C4111486D42A04115D394181A465E
:1006E0005A410E48644290410ED301204A00400511
:1006F000824209D35A00824206D35940C90F084AA0
:10070000C90700201143DDE700200649DAE70000B1
:100710000000FF07FE070000FFFFFF7F0000E0FF73
:100720000000F07F0000F87F70B505464800440DDA
:10073000124B0020002C0AD0634008D09A4206DAFF
:100740006642B24203DD12054019514170BD002CD2
:1007500008D0002B09D0C90FC907002AF6DB084AC8
:10076000114370BDC90FC90770BD28460A03104365
:1007700002D00020034970BD284670BDFF0700006D
:100780000000F07F0000F87F754600F025F8AE46C7
:10079000050069465346C008C000854618B020B51C
:1007A000FFF7EAFC60BC00274908B6460026C0C532
:1007B000C0C5C0C5C0C5C0C5C0C5C0C5C0C5403D19
:1007C00049008D46704710B50446C046C0462046D5
:1007D000FFF7C1FC10BD0000004870472800002052
:1007E00001491820ABBEFEE726000200704700005A
:1007F00070B5044600F00EF80546601C02D00448AF
:100800000078241800F006F8401BA042FAD370BD0F
:100810001800002001488068704700001800002080
:1008200002488168027889188160704718000020AA
:1008300010B506480168102211430160032000F042
:1008400007F800F027F8002010BD0000002002404B
:1008500070B504460D4D7D202978C000FFF73FFD9F
:1008600001460B480068FFF73AFD00F001FB002845
:1008700009D1042C07D200222146401E00F01EF8A8
:1008800000206C6070BD012070BD000018000020C9
:100890002400002008B508488169012211438161C4
:1008A000816911400091C26901040A43C261C069B3
:1008B0000840009008BD00000010024010B500F094
:1008C00079FB10BDF8B50F4606005FD03D4D286896
:1008D000C007C00FB84209D228684008400038431A
:1008E00028602868C007C00FB8424FD13068364C26
:1008F00081070CD5400704D5606807210902084329
:1009000060606068F0218843B168084360603078B7
:10091000C0072CD07068012810D0022811D00328FD
:1009200012D021688907002930DA616889088900B6
:1009300001436160FFF76EFF009011E021688903B9
:10094000F1E721688901EEE7616BC903EBE7FFF787
:1009500061FF0099411A1D48814201D90320F8BD69
:1009600060680C210840716889008842EFD12868CE
:10097000C007C00FB8420BD9286840084000384370
:1009800028602868C007C00FB84201D00120F8BD18
:100990003078400706D56068072109028843F1686E
:1009A0000843606000F018F86168094A0906090FF9
:1009B000515CC840074908600320FFF749FF002049
:1009C000F8BD000000200240001002408813000023
:1009D000581100082400002030B519A30FCB89B0AE
:1009E0006C460FC41AA30FCB0FC41D4A51680C20CC
:1009F0000B4603401B48042B05D01B4D082B04D08D
:100A00000C2B00D1284609B030BD8B021B0F6C4661
:100A1000E45CD26A04AB1207120FC9039A5C890F17
:100A2000022901D0032901D0002301E00023284638
:100A30000021FFF7B3FB214600F0A4FAE3E7000032
:100A400002030405060708090A0B0C0D0E0F10100F
:100A50000102030405060708090A0B0C0D0E0F100E
:100A60000010024000127A00006CDC02FEB50400A7
:100A700070D02078F94EFA4DC00748D0686800075A
:100A8000800F01281FD068680007800F022804D15A
:100A90006868C003800F022815D06168012919D049
:100AA00001208004002901D0052917D02968B1430D
:100AB0002960296881432960606800281BD0FFF7FE
:100AC000A9FE074613E02868800320D56068002847
:100AD000CED01CE0286830432860EDE72968014348
:100AE0002960F7E7FFF796FEC01B642870D82868D6
:100AF0008003F7D50BE0FFF78DFE074604E0FFF714
:100B000089FEC01B6428F1D828688003F7D42078B8
:100B100080073FD568680007800F14D06868000719
:100B2000800F022804D16868C003800F01280AD012
:100B3000E068002828681ED0012108432860FFF7DC
:100B400069FE07460CE0286880070CD5E06801289C
:100B500000D108E080E1FFF75DFEC01B0228C5D888
:100B600028688007F7D52868F82188432169C900DB
:100B7000084328600EE0400840002860FFF74AFE66
:100B8000074604E0FFF746FEC01B0228AED82868DF
:100B90008007F7D42078000723D5E0690028686A29
:100BA0000FD0012108436862FFF734FE074604E0D6
:100BB000FFF730FEC01B022898D8686A8007F7D577
:100BC0000FE0400840006862FFF724FE074605E09A
:100BD000C3E0FFF71FFEC01B022887D8686A8007A2
:100BE000F7D4207804274007002861DA002001901C
:100BF000E869C00008D4E969B8060143E961E96918
:100C0000014001200091019096480168C90511D466
:100C10000168821511430160FFF7FCFD009005E0BB
:100C2000FFF7F8FD0099401A642898D88D480068AD
:100C3000C005F5D5A06801280AD0002801D00528F4
:100C400011D0286A400840002862286AB84302E0B0
:100C5000286A012108432862A068002812D0FFF703
:100C6000D9FD00900AE0286A38432862F0E7FFF7D0
:100C7000D1FD0099411A7C4881426ED8286A8007CC
:100C8000F5D50DE0FFF7C6FD009006E0FFF7C2FDC9
:100C90000099411A744881425FD8286A8007F5D4C8
:100CA0000198002804D0E969012000078143E96127
:100CB0002078C00635D5606901280CD0401D686BCE
:100CC00024D038436863686B400840006863FFF7CE
:100CD000A1FD074622E0686B38436863686B012119
:100CE00008436863FFF796FD074604E0FFF792FDAF
:100CF000C01B022831D8686B8007F7D5686BF821D4
:100D00008843A169C900084368630AE0B84368637F
:100D1000F4E7FFF77FFDC01B02281ED8686B800731
:100D2000F7D42078800637D568680007800F03283D
:100D300014D068680007800F022804D16868C003D7
:100D4000800F03280AD0206A0028686B16D0304331
:100D50006863FFF75FFD06460CE062E0686BC00366
:100D60001AD5206A012877D116E0FFF753FD801BC2
:100D7000022856D8686BC003F7D50DE0B04368630E
:100D8000FFF748FD064604E0FFF744FD801B0228FC
:100D900047D8686BC003F7D4606A002866D06968DA
:100DA0000907890F022942D0012636060228286841
:100DB00005D0B0432860FFF72DFD044633E0B04373
:100DC0002860FFF727FD074604E0FFF723FDC01B5F
:100DD000022826D828688001F7D4E86A216B000928
:100DE00000010843E862A16AE06A084369687B225F
:100DF000D203914308436860286830432860FFF7B6
:100E000009FD044604E0FFF705FD001B022808D891
:100E100028688001F7D529E0FFF7FCFC001B0228B9
:100E200001D90320FEBD28688001F5D41EE0012809
:100E3000F8D06868E96A0322D203A36A02409A42A2
:100E40000AD10907226B090F914205D10F218904AC
:100E50000840E16A884209D00120FEBD000001007F
:100E60000010024000700040881300000020F4E7EA
:100E7000094910B5401E884201D9012010BD074C18
:100E800060610321081F00F095F80020A061072091
:100E90002061002010BD0000FFFFFF0000E000E027
:100EA000FEE7FEE77047704710B5FFF7B9FC10BDCD
:100EB00010B592B034216846FFF70FFA00240F9462
:100EC000022000900D9401200E94039010200994AC
:100ED000049010946846FFF7C9FD002801D072B64F
:100EE000FEE707200D900E940F94002110940DA89A
:100EF000FFF7E8FC002801D072B6FEE712B010BD83
:100F000070470000F8B51B4C194BA06801261D075F
:100F10000027002802D0012804D027E0A86BA66093
:100F2000606023E0A96B216062680020914202D2D8
:100F3000981A401802E08A4202D2881A002803D187
:100F400001210D4A49025161FFF7C7FA0B4A0C4BC8
:100F5000FFF7C6FA0022D243FFF7E6FBFFF770FA6D
:100F6000A7600A2801D8E66000E0E7602F61F8BDBD
:100F7000C409000000000020000800489CC420B004
:100F80007268A13FF8B5040C8BB2264682B25E436C
:100F90000D0C1046370C5843360480190021794156
:100FA00016466E43370C36048019794126466E4347
:100FB0008919F8BD8307FF22DB0E9A408907090EC5
:100FC0009940002808DB830809489B001B18186813
:100FD00090430843186070470007000F08388308E3
:100FE00004489B001B18D86990430843D861704798
:100FF00000E400E000ED00E00948416901225202EE
:101000001143416141690822114341614169402214
:1010100091434161416910221143416170470000D1
:1010200000080048FFF704FCFFF742FF3948406919
:1010300005214904084337494861C86901263043FE
:10104000C861354C20683043206020680221884305
:101050002060E0683043E060E068E0600920C0069E
:101060000168082211430160C1680C221143C1606C
:10107000026A20210A4302620922C0008262274AD2
:10108000C2628369821513438361036A0B4303625F
:10109000036A80210B430362036A10252B4303621A
:1010A000C36804252B43C360036801252B430360F9
:1010B000206840231843206020688843206020680F
:1010C000104320602068890088432060880114490B
:1010D0000860144801680902090A00250160124FDE
:1010E00060693043606128467D610121401C0F2802
:1010F000FBD3396178616069884360613C20FFF708
:1011000077FBF868002802D000F010F8E8E7FFF756
:1011100073FFE5E70010024000080048E8FD00000A
:1011200000E100E00CE400E0000000200948416913
:101130000122520291434161416908229143416178
:10114000416940221143416141691022914341614B
:101150007047000000080048000000000000000088
:101160000102030406070809881100080000002096
:101170002800000004010008B01100082800002029
:1011800060060000200100080000000000000000D0
:10119000000000000000000000000000000000004F
:1011A00001000000040000000000000000127A00AE
:04000005080000C12E
:00000001FF
